{
  "transactions": [
    {
      "hash": "0xe700df1289d675adbf2dccd0666a25c786853e96e285e5a9c75d3a782986951f",
      "transactionType": "CALL",
      "contractName": "BasicNft",
      "contractAddress": "0xe23473d1fbab81161740b480e9d7cfe146e0120f",
      "function": "mintNft(string)",
      "arguments": [
        "ipfs://QmT58JWJsh4vWhn8upK5MYaP1LriPnmYtnoJqSUfzKnpYy/?filename=0-PUG.json"
      ],
      "transaction": {
        "from": "0x537be07f6ea640cb207330fa0c39932e838b67df",
        "to": "0xe23473d1fbab81161740b480e9d7cfe146e0120f",
        "gas": "0x413a4",
        "value": "0x0",
        "input": "0xda86f4a90000000000000000000000000000000000000000000000000000000000000020000000000000000000000000000000000000000000000000000000000000004a697066733a2f2f516d5435384a574a7368347657686e3875704b354d596150314c7269506e6d59746e6f4a715355667a4b6e7059792f3f66696c656e616d653d302d5055472e6a736f6e00000000000000000000000000000000000000000000",
        "nonce": "0x7",
        "chainId": "0xaa36a7"
      },
      "additionalContracts": [],
      "isFixedGasLimit": false
    }
  ],
  "receipts": [
    {
      "status": "0x1",
      "cumulativeGasUsed": "0xfe430e",
      "logs": [
        {
          "address": "0xe23473d1fbab81161740b480e9d7cfe146e0120f",
          "topics": [
            "0xddf252ad1be2c89b69c2b068fc378daa952ba7f163c4a11628f55a4df523b3ef",
            "0x0000000000000000000000000000000000000000000000000000000000000000",
            "0x000000000000000000000000537be07f6ea640cb207330fa0c39932e838b67df",
            "0x0000000000000000000000000000000000000000000000000000000000000000"
          ],
          "data": "0x",
          "blockHash": "0x01f87cfabb2cc4966dc1421b737a928dbc7c36d2757697c93d21bc5036669057",
          "blockNumber": "0x87e3df",
          "blockTimestamp": "0x688fb168",
          "transactionHash": "0xe700df1289d675adbf2dccd0666a25c786853e96e285e5a9c75d3a782986951f",
          "transactionIndex": "0x62",
          "logIndex": "0xab",
          "removed": false
        }
      ],
      "logsBloom": "0x00000000000000000000000000000000000000000000000000000000000000000000000000000000000000000000000000000000200000000000000000000000000000000000000000000008000000000000000000000000000000000000001000000000020000000000000000000800002000000000000000000010000000000000000000000000000000000000000000000000000000000000000000000000000000000000000000000000000000000404000000000000000000000000000000004002000000000000000000000000000000000000000000000000000020000000000000000000000000000000000000000000000000000000000000000000",
      "type": "0x2",
      "transactionHash": "0xe700df1289d675adbf2dccd0666a25c786853e96e285e5a9c75d3a782986951f",
      "transactionIndex": "0x62",
      "blockHash": "0x01f87cfabb2cc4966dc1421b737a928dbc7c36d2757697c93d21bc5036669057",
      "blockNumber": "0x87e3df",
      "gasUsed": "0x2c99a",
      "effectiveGasPrice": "0x13f404",
      "from": "0x537be07f6ea640cb207330fa0c39932e838b67df",
      "to": "0xe23473d1fbab81161740b480e9d7cfe146e0120f",
      "contractAddress": null
    }
  ],
  "libraries": [],
  "pending": [],
  "returns": {},
  "timestamp": 1754247522,
  "chain": 11155111,
  "commit": null
}