{
  "transactions": [
    {
      "hash": "0xa4cc247669b6f2a0f17bec9c51e8e8ad4286c8ceb219225e5239c4aa6c9b68a9",
      "transactionType": "CALL",
      "contractName": null,
      "contractAddress": "0xdf972b14c925e26934767b84eebb8fadb4625134",
      "function": "mintNft(string)",
      "arguments": [
        "ipfs://QmfKei12eThrFtSpqNJ7cQfYdaLRjtvbAMTRdAYLkrUjst/0-PUG.json?filename=0-PUG.json"
      ],
      "transaction": {
        "from": "0x537be07f6ea640cb207330fa0c39932e838b67df",
        "to": "0xdf972b14c925e26934767b84eebb8fadb4625134",
        "gas": "0x41453",
        "value": "0x0",
        "input": "0xda86f4a900000000000000000000000000000000000000000000000000000000000000200000000000000000000000000000000000000000000000000000000000000054697066733a2f2f516d664b656931326554687246745370714e4a376351665964614c526a747662414d54526441594c6b72556a73742f302d5055472e6a736f6e3f66696c656e616d653d302d5055472e6a736f6e000000000000000000000000",
        "nonce": "0x1",
        "chainId": "0xaa36a7"
      },
      "additionalContracts": [],
      "isFixedGasLimit": false
    }
  ],
  "receipts": [
    {
      "status": "0x1",
      "cumulativeGasUsed": "0xd116ec",
      "logs": [
        {
          "address": "0xdf972b14c925e26934767b84eebb8fadb4625134",
          "topics": [
            "0xddf252ad1be2c89b69c2b068fc378daa952ba7f163c4a11628f55a4df523b3ef",
            "0x0000000000000000000000000000000000000000000000000000000000000000",
            "0x000000000000000000000000537be07f6ea640cb207330fa0c39932e838b67df",
            "0x0000000000000000000000000000000000000000000000000000000000000000"
          ],
          "data": "0x",
          "blockHash": "0x0084ab40347153076cd95c75df2d28bd0ab346a1a5c6859ed150f0c37877c6a9",
          "blockNumber": "0x87e23d",
          "blockTimestamp": "0x688f9dd0",
          "transactionHash": "0xa4cc247669b6f2a0f17bec9c51e8e8ad4286c8ceb219225e5239c4aa6c9b68a9",
          "transactionIndex": "0x68",
          "logIndex": "0xd3",
          "removed": false
        }
      ],
      "logsBloom": "0x00000000000000000000000000000000000000000000000000000000000000000000000000000000000000000000000000000000200000000000000000000000001000000000000000000008000000000000000000000000000000000000000000000000020000000000000000000800000000000000000000000010000000000000000000000000000000000000000000000000000000000000000040000000000000000000000000000000000000000004000000000000000000000000000000004002000000000000000000000000000000000000000000000000000020000000000000000000000000000000000000001000000000000000000000000000",
      "type": "0x2",
      "transactionHash": "0xa4cc247669b6f2a0f17bec9c51e8e8ad4286c8ceb219225e5239c4aa6c9b68a9",
      "transactionIndex": "0x68",
      "blockHash": "0x0084ab40347153076cd95c75df2d28bd0ab346a1a5c6859ed150f0c37877c6a9",
      "blockNumber": "0x87e23d",
      "gasUsed": "0x2ca12",
      "effectiveGasPrice": "0x170671",
      "from": "0x537be07f6ea640cb207330fa0c39932e838b67df",
      "to": "0xdf972b14c925e26934767b84eebb8fadb4625134",
      "contractAddress": null
    }
  ],
  "libraries": [],
  "pending": [],
  "returns": {},
  "timestamp": 1754242513,
  "chain": 11155111,
  "commit": null
}