{
  "transactions": [
    {
      "hash": "0xfab0de16870708c042b0bd171400390aad199197f15240142d5f5dd5fac14405",
      "transactionType": "CALL",
      "contractName": null,
      "contractAddress": "0x05ce3616fa80202bd08df8b351bfb60d8e4d6ff8",
      "function": "mintNft(string)",
      "arguments": [
        "ipfs://QmYDoUExVaBCr8RaqMuint4MReD2tDa7SCGuEUVh3xNo5F/?filename=0-PUG.json"
      ],
      "transaction": {
        "from": "0x537be07f6ea640cb207330fa0c39932e838b67df",
        "to": "0x05ce3616fa80202bd08df8b351bfb60d8e4d6ff8",
        "gas": "0x413a4",
        "value": "0x0",
        "input": "0xda86f4a90000000000000000000000000000000000000000000000000000000000000020000000000000000000000000000000000000000000000000000000000000004a697066733a2f2f516d59446f5545785661424372385261714d75696e74344d5265443274446137534347754555566833784e6f35462f3f66696c656e616d653d302d5055472e6a736f6e00000000000000000000000000000000000000000000",
        "nonce": "0x9",
        "chainId": "0xaa36a7"
      },
      "additionalContracts": [],
      "isFixedGasLimit": false
    }
  ],
  "receipts": [
    {
      "status": "0x1",
      "cumulativeGasUsed": "0xac3f7e",
      "logs": [
        {
          "address": "0x05ce3616fa80202bd08df8b351bfb60d8e4d6ff8",
          "topics": [
            "0xddf252ad1be2c89b69c2b068fc378daa952ba7f163c4a11628f55a4df523b3ef",
            "0x0000000000000000000000000000000000000000000000000000000000000000",
            "0x000000000000000000000000537be07f6ea640cb207330fa0c39932e838b67df",
            "0x0000000000000000000000000000000000000000000000000000000000000000"
          ],
          "data": "0x",
          "blockHash": "0x40d733c7d5ad7d44347fed4a539e32d9106a1ef2286bc1ac96cc19eccba86688",
          "blockNumber": "0x87e40f",
          "blockTimestamp": "0x688fb3a8",
          "transactionHash": "0xfab0de16870708c042b0bd171400390aad199197f15240142d5f5dd5fac14405",
          "transactionIndex": "0x4b",
          "logIndex": "0x87",
          "removed": false
        }
      ],
      "logsBloom": "0x00000000000400000000000000000000000000000000000000000004000000000000000000000000000000000000000000000000200000000000000000000000000000000000000000000008000000000000000000000000000000000000000000000000020000000000000000000800000000000000000000000010000000000001000000000000000000000000000000000000000000000000000000000000000000000000000000000000000000000004000000000000000000000000000000004002000000000000000000000000000000000000000000000000000020000000000000000000000000000000000000000000000000000000000000000000",
      "type": "0x2",
      "transactionHash": "0xfab0de16870708c042b0bd171400390aad199197f15240142d5f5dd5fac14405",
      "transactionIndex": "0x4b",
      "blockHash": "0x40d733c7d5ad7d44347fed4a539e32d9106a1ef2286bc1ac96cc19eccba86688",
      "blockNumber": "0x87e40f",
      "gasUsed": "0x2c99a",
      "effectiveGasPrice": "0x13b32d",
      "from": "0x537be07f6ea640cb207330fa0c39932e838b67df",
      "to": "0x05ce3616fa80202bd08df8b351bfb60d8e4d6ff8",
      "contractAddress": null
    }
  ],
  "libraries": [],
  "pending": [],
  "returns": {},
  "timestamp": 1754248096,
  "chain": 11155111,
  "commit": null
}