{
  "transactions": [
    {
      "hash": "0xda2492e81c351f3bc07fc80d59c748838b0e6b2c19e2a08107ae2eb08ece476f",
      "transactionType": "CALL",
      "contractName": null,
      "contractAddress": "0xd74f29f7ec2ed86f63e4468e841d4e506d16f008",
      "function": "mintNft(string)",
      "arguments": [
        "ipfs://QmZ9oXpydxssd6DarNYPQa5BTQgb7A78MYZ7rhoVhVxzzk"
      ],
      "transaction": {
        "from": "0x537be07f6ea640cb207330fa0c39932e838b67df",
        "to": "0xd74f29f7ec2ed86f63e4468e841d4e506d16f008",
        "gas": "0x35fd4",
        "value": "0x0",
        "input": "0xda86f4a900000000000000000000000000000000000000000000000000000000000000200000000000000000000000000000000000000000000000000000000000000035697066733a2f2f516d5a396f5870796478737364364461724e59505161354254516762374137384d595a3772686f566856787a7a6b0000000000000000000000",
        "nonce": "0x5",
        "chainId": "0xaa36a7"
      },
      "additionalContracts": [],
      "isFixedGasLimit": false
    }
  ],
  "receipts": [
    {
      "status": "0x1",
      "cumulativeGasUsed": "0xcf79fa",
      "logs": [
        {
          "address": "0xd74f29f7ec2ed86f63e4468e841d4e506d16f008",
          "topics": [
            "0xddf252ad1be2c89b69c2b068fc378daa952ba7f163c4a11628f55a4df523b3ef",
            "0x0000000000000000000000000000000000000000000000000000000000000000",
            "0x000000000000000000000000537be07f6ea640cb207330fa0c39932e838b67df",
            "0x0000000000000000000000000000000000000000000000000000000000000000"
          ],
          "data": "0x",
          "blockHash": "0x7f33a244648dd87e9e2642a491eac512d8e340a03df95f8499e5e2574c45dd28",
          "blockNumber": "0x87e29d",
          "blockTimestamp": "0x688fa250",
          "transactionHash": "0xda2492e81c351f3bc07fc80d59c748838b0e6b2c19e2a08107ae2eb08ece476f",
          "transactionIndex": "0x7a",
          "logIndex": "0x123",
          "removed": false
        }
      ],
      "logsBloom": "0x00000000000000000000000000000000000000000000000000000000000000000000000000000000000000000000000000000000200000000000000000000000000000000000000000000008000000000000000000000000000000000000000000000000020000000000000000000800000000000000000000000010000000000000000000000000000000000000000000000008000000000000000000000000000000000000000000000000000000000004000000000000000000000000000000004002000000000000000000000000000002000000000000000000000020000000000000000080000000000000000000000000000000000000000000000000",
      "type": "0x2",
      "transactionHash": "0xda2492e81c351f3bc07fc80d59c748838b0e6b2c19e2a08107ae2eb08ece476f",
      "transactionIndex": "0x7a",
      "blockHash": "0x7f33a244648dd87e9e2642a491eac512d8e340a03df95f8499e5e2574c45dd28",
      "blockNumber": "0x87e29d",
      "gasUsed": "0x27166",
      "effectiveGasPrice": "0x17b8a4",
      "from": "0x537be07f6ea640cb207330fa0c39932e838b67df",
      "to": "0xd74f29f7ec2ed86f63e4468e841d4e506d16f008",
      "contractAddress": null
    }
  ],
  "libraries": [],
  "pending": [],
  "returns": {},
  "timestamp": 1754243665,
  "chain": 11155111,
  "commit": null
}