{
  "transactions": [
    {
      "hash": "0x5c62a4d8120d477dc68e1db8281494504febaa1fbad0ce8f455f7f656984fd46",
      "transactionType": "CALL",
      "contractName": null,
      "contractAddress": "0x8719d8b5be40a44670a55e26d617e5ee3e105d67",
      "function": "mintNft(string)",
      "arguments": [
        "ipfs://bafybeig37ioir76s7mg5oobetncojcm3c3hxasyd4rvid4jqhy4gkaheg4/?filename=0-PUG.json"
      ],
      "transaction": {
        "from": "0x537be07f6ea640cb207330fa0c39932e838b67df",
        "to": "0x8719d8b5be40a44670a55e26d617e5ee3e105d67",
        "gas": "0x3da80",
        "value": "0x0",
        "input": "0xda86f4a900000000000000000000000000000000000000000000000000000000000000200000000000000000000000000000000000000000000000000000000000000057697066733a2f2f62616679626569673337696f6972373673376d67356f6f6265746e636f6a636d3363336878617379643472766964346a71687934676b61686567342f3f66696c656e616d653d302d5055472e6a736f6e000000000000000000",
        "nonce": "0x3",
        "chainId": "0xaa36a7"
      },
      "additionalContracts": [],
      "isFixedGasLimit": false
    }
  ],
  "receipts": [
    {
      "status": "0x1",
      "cumulativeGasUsed": "0x1129268",
      "logs": [
        {
          "address": "0x8719d8b5be40a44670a55e26d617e5ee3e105d67",
          "topics": [
            "0xddf252ad1be2c89b69c2b068fc378daa952ba7f163c4a11628f55a4df523b3ef",
            "0x0000000000000000000000000000000000000000000000000000000000000000",
            "0x000000000000000000000000537be07f6ea640cb207330fa0c39932e838b67df",
            "0x0000000000000000000000000000000000000000000000000000000000000000"
          ],
          "data": "0x",
          "blockHash": "0xf2830207c0706625d23a56416d87f68eed24a09a3f620d013221ccadce6f7f25",
          "blockNumber": "0x87e273",
          "blockTimestamp": "0x688fa058",
          "transactionHash": "0x5c62a4d8120d477dc68e1db8281494504febaa1fbad0ce8f455f7f656984fd46",
          "transactionIndex": "0x61",
          "logIndex": "0x74",
          "removed": false
        }
      ],
      "logsBloom": "0x00000000000000000000000000000000000000000000000000000000000000000000000000000000000000000000000000000000200000000000000000000000000000000000000000000008000000000000000000000000000000000000000000000000020000000000000000000800000000000000000000000010000000000000000000000000000000000000000000000000000000000000000000000000000000000000000004004000000000000004000000400000000000000000000000004002000000000000000000000000000000000000000000000000000020000000000000000000000000000000000000000000000000000000000000000000",
      "type": "0x2",
      "transactionHash": "0x5c62a4d8120d477dc68e1db8281494504febaa1fbad0ce8f455f7f656984fd46",
      "transactionIndex": "0x61",
      "blockHash": "0xf2830207c0706625d23a56416d87f68eed24a09a3f620d013221ccadce6f7f25",
      "blockNumber": "0x87e273",
      "gasUsed": "0x2ca36",
      "effectiveGasPrice": "0x1aa8e1",
      "from": "0x537be07f6ea640cb207330fa0c39932e838b67df",
      "to": "0x8719d8b5be40a44670a55e26d617e5ee3e105d67",
      "contractAddress": null
    }
  ],
  "libraries": [],
  "pending": [],
  "returns": {},
  "timestamp": 1754243161,
  "chain": 11155111,
  "commit": null
}